{
  "_format": "hh-sol-artifact-1",
  "contractName": "Voting",
  "sourceName": "contracts/Voting.sol",
  "abi": [
    {
      "inputs": [],
      "stateMutability": "nonpayable",
      "type": "constructor"
    },
    {
      "anonymous": false,
      "inputs": [
        {
          "indexed": false,
          "internalType": "uint256",
          "name": "candId",
          "type": "uint256"
        },
        {
          "indexed": false,
          "internalType": "string",
          "name": "candName",
          "type": "string"
        },
        {
          "indexed": false,
          "internalType": "string",
          "name": "candImage",
          "type": "string"
        },
        {
          "indexed": false,
          "internalType": "uint256",
          "name": "voteCount",
          "type": "uint256"
        },
        {
          "indexed": false,
          "internalType": "address",
          "name": "candAddress",
          "type": "address"
        },
        {
          "indexed": false,
          "internalType": "string",
          "name": "candIpfs",
          "type": "string"
        }
      ],
      "name": "CandidateCreate",
      "type": "event"
    },
    {
      "anonymous": false,
      "inputs": [
        {
          "indexed": false,
          "internalType": "uint256",
          "name": "voterId",
          "type": "uint256"
        },
        {
          "indexed": false,
          "internalType": "string",
          "name": "voterName",
          "type": "string"
        },
        {
          "indexed": false,
          "internalType": "string",
          "name": "voterImage",
          "type": "string"
        },
        {
          "indexed": false,
          "internalType": "uint256",
          "name": "voterAllowed",
          "type": "uint256"
        },
        {
          "indexed": false,
          "internalType": "bool",
          "name": "hasVoted",
          "type": "bool"
        },
        {
          "indexed": false,
          "internalType": "uint256",
          "name": "voteDecision",
          "type": "uint256"
        },
        {
          "indexed": false,
          "internalType": "address",
          "name": "voterAddress",
          "type": "address"
        },
        {
          "indexed": false,
          "internalType": "string",
          "name": "voterIpfs",
          "type": "string"
        }
      ],
      "name": "VoterCreated",
      "type": "event"
    },
    {
      "inputs": [],
      "name": "_candidateId",
      "outputs": [
        {
          "internalType": "uint256",
          "name": "_value",
          "type": "uint256"
        }
      ],
      "stateMutability": "view",
      "type": "function"
    },
    {
      "inputs": [],
      "name": "_voterId",
      "outputs": [
        {
          "internalType": "uint256",
          "name": "_value",
          "type": "uint256"
        }
      ],
      "stateMutability": "view",
      "type": "function"
    },
    {
      "inputs": [
        {
          "internalType": "address",
          "name": "_address",
          "type": "address"
        },
        {
          "internalType": "string",
          "name": "_name",
          "type": "string"
        },
        {
          "internalType": "string",
          "name": "_image",
          "type": "string"
        },
        {
          "internalType": "string",
          "name": "_ipfs",
          "type": "string"
        }
      ],
      "name": "addCandidate",
      "outputs": [],
      "stateMutability": "nonpayable",
      "type": "function"
    },
    {
      "inputs": [
        {
          "internalType": "address",
          "name": "_address",
          "type": "address"
        },
        {
          "internalType": "string",
          "name": "_name",
          "type": "string"
        },
        {
          "internalType": "string",
          "name": "_image",
          "type": "string"
        },
        {
          "internalType": "string",
          "name": "_ipfs",
          "type": "string"
        }
      ],
      "name": "addVoter",
      "outputs": [],
      "stateMutability": "nonpayable",
      "type": "function"
    },
    {
      "inputs": [
        {
          "internalType": "address",
          "name": "",
          "type": "address"
        }
      ],
      "name": "candidates",
      "outputs": [
        {
          "internalType": "uint256",
          "name": "candId",
          "type": "uint256"
        },
        {
          "internalType": "string",
          "name": "candName",
          "type": "string"
        },
        {
          "internalType": "string",
          "name": "candImage",
          "type": "string"
        },
        {
          "internalType": "uint256",
          "name": "voteCount",
          "type": "uint256"
        },
        {
          "internalType": "address",
          "name": "candAddress",
          "type": "address"
        },
        {
          "internalType": "string",
          "name": "candIpfs",
          "type": "string"
        }
      ],
      "stateMutability": "view",
      "type": "function"
    },
    {
      "inputs": [
        {
          "internalType": "uint256",
          "name": "",
          "type": "uint256"
        }
      ],
      "name": "candidatesAddress",
      "outputs": [
        {
          "internalType": "address",
          "name": "",
          "type": "address"
        }
      ],
      "stateMutability": "view",
      "type": "function"
    },
    {
      "inputs": [
        {
          "internalType": "address",
          "name": "_candidateAddress",
          "type": "address"
        },
        {
          "internalType": "uint256",
          "name": "_candidateVoteId",
          "type": "uint256"
        }
      ],
      "name": "castVote",
      "outputs": [],
      "stateMutability": "nonpayable",
      "type": "function"
    },
    {
      "inputs": [],
      "name": "getCandidateCount",
      "outputs": [
        {
          "internalType": "uint256",
          "name": "",
          "type": "uint256"
        }
      ],
      "stateMutability": "view",
      "type": "function"
    },
    {
      "inputs": [
        {
          "internalType": "address",
          "name": "_address",
          "type": "address"
        }
      ],
      "name": "getCandidateData",
      "outputs": [
        {
          "internalType": "string",
          "name": "",
          "type": "string"
        },
        {
          "internalType": "uint256",
          "name": "",
          "type": "uint256"
        },
        {
          "internalType": "string",
          "name": "",
          "type": "string"
        },
        {
          "internalType": "uint256",
          "name": "",
          "type": "uint256"
        },
        {
          "internalType": "address",
          "name": "",
          "type": "address"
        },
        {
          "internalType": "string",
          "name": "",
          "type": "string"
        }
      ],
      "stateMutability": "view",
      "type": "function"
    },
    {
      "inputs": [],
      "name": "getCandidateList",
      "outputs": [
        {
          "internalType": "address[]",
          "name": "",
          "type": "address[]"
        }
      ],
      "stateMutability": "view",
      "type": "function"
    },
    {
      "inputs": [],
      "name": "getVotedVoterList",
      "outputs": [
        {
          "internalType": "address[]",
          "name": "",
          "type": "address[]"
        }
      ],
      "stateMutability": "view",
      "type": "function"
    },
    {
      "inputs": [],
      "name": "getVoterCount",
      "outputs": [
        {
          "internalType": "uint256",
          "name": "",
          "type": "uint256"
        }
      ],
      "stateMutability": "view",
      "type": "function"
    },
    {
      "inputs": [
        {
          "internalType": "address",
          "name": "_address",
          "type": "address"
        }
      ],
      "name": "getVoterData",
      "outputs": [
        {
          "internalType": "uint256",
          "name": "",
          "type": "uint256"
        },
        {
          "internalType": "string",
          "name": "",
          "type": "string"
        },
        {
          "internalType": "string",
          "name": "",
          "type": "string"
        },
        {
          "internalType": "uint256",
          "name": "",
          "type": "uint256"
        },
        {
          "internalType": "bool",
          "name": "",
          "type": "bool"
        },
        {
          "internalType": "address",
          "name": "",
          "type": "address"
        },
        {
          "internalType": "string",
          "name": "",
          "type": "string"
        }
      ],
      "stateMutability": "view",
      "type": "function"
    },
    {
      "inputs": [],
      "name": "getVoterList",
      "outputs": [
        {
          "internalType": "address[]",
          "name": "",
          "type": "address[]"
        }
      ],
      "stateMutability": "view",
      "type": "function"
    },
    {
      "inputs": [
        {
          "internalType": "uint256",
          "name": "",
          "type": "uint256"
        }
      ],
      "name": "votedVoters",
      "outputs": [
        {
          "internalType": "address",
          "name": "",
          "type": "address"
        }
      ],
      "stateMutability": "view",
      "type": "function"
    },
    {
      "inputs": [
        {
          "internalType": "address",
          "name": "",
          "type": "address"
        }
      ],
      "name": "voters",
      "outputs": [
        {
          "internalType": "uint256",
          "name": "voterId",
          "type": "uint256"
        },
        {
          "internalType": "string",
          "name": "voterName",
          "type": "string"
        },
        {
          "internalType": "string",
          "name": "voterImage",
          "type": "string"
        },
        {
          "internalType": "uint256",
          "name": "voterAllowed",
          "type": "uint256"
        },
        {
          "internalType": "bool",
          "name": "hasVoted",
          "type": "bool"
        },
        {
          "internalType": "uint256",
          "name": "voteDecision",
          "type": "uint256"
        },
        {
          "internalType": "address",
          "name": "voterAddress",
          "type": "address"
        },
        {
          "internalType": "string",
          "name": "voterIpfs",
          "type": "string"
        }
      ],
      "stateMutability": "view",
      "type": "function"
    },
    {
      "inputs": [
        {
          "internalType": "uint256",
          "name": "",
          "type": "uint256"
        }
      ],
      "name": "votersAddress",
      "outputs": [
        {
          "internalType": "address",
          "name": "",
          "type": "address"
        }
      ],
      "stateMutability": "view",
      "type": "function"
    },
    {
      "inputs": [],
      "name": "votingOrganiser",
      "outputs": [
        {
          "internalType": "address",
          "name": "",
          "type": "address"
        }
      ],
      "stateMutability": "view",
      "type": "function"
    }
  ],
  "bytecode": "0x608060405234801561001057600080fd5b5033600260006101000a81548173ffffffffffffffffffffffffffffffffffffffff021916908373ffffffffffffffffffffffffffffffffffffffff1602179055506124d2806100616000396000f3fe608060405234801561001057600080fd5b50600436106101165760003560e01c80638fb4cd80116100a2578063b9be315211610071578063b9be315214610334578063c15f74e514610352578063cd948ab71461036e578063fdbc40061461038c578063ff91bb45146103aa57610116565b80638fb4cd801461028b578063a3ec138d146102c1578063a7388967146102f8578063b28d92ae1461031657610116565b806343242daa116100e957806343242daa146101a85780635f1125ed146101d85780637831ffb3146102085780638ab66a90146102385780638e9456851461026d57610116565b80630df7afab1461011b57806311174a29146101375780632a466ac71461015557806330a563471461018a575b600080fd5b61013560048036038101906101309190611a03565b6103c6565b005b61013f6105ed565b60405161014c9190611ad7565b60405180910390f35b61016f600480360381019061016a9190611af2565b6105fa565b60405161018196959493929190611bad565b60405180910390f35b61019261096d565b60405161019f9190611ad7565b60405180910390f35b6101c260048036038101906101bd9190611c4f565b61097a565b6040516101cf9190611c7c565b60405180910390f35b6101f260048036038101906101ed9190611c4f565b6109b9565b6040516101ff9190611c7c565b60405180910390f35b610222600480360381019061021d9190611c4f565b6109f8565b60405161022f9190611c7c565b60405180910390f35b610252600480360381019061024d9190611af2565b610a37565b60405161026496959493929190611c97565b60405180910390f35b610275610c2b565b6040516102829190611dcb565b60405180910390f35b6102a560048036038101906102a09190611af2565b610cb9565b6040516102b89796959493929190611e08565b60405180910390f35b6102db60048036038101906102d69190611af2565b611081565b6040516102ef989796959493929190611e8c565b60405180910390f35b61030061128e565b60405161030d9190611ad7565b60405180910390f35b61031e61129a565b60405161032b9190611dcb565b60405180910390f35b61033c611328565b6040516103499190611ad7565b60405180910390f35b61036c60048036038101906103679190611a03565b611334565b005b6103766115ac565b6040516103839190611c7c565b60405180910390f35b6103946115d2565b6040516103a19190611dcb565b60405180910390f35b6103c460048036038101906103bf9190611f1f565b611660565b005b3373ffffffffffffffffffffffffffffffffffffffff16600260009054906101000a900473ffffffffffffffffffffffffffffffffffffffff1673ffffffffffffffffffffffffffffffffffffffff1614610456576040517f08c379a000000000000000000000000000000000000000000000000000000000815260040161044d90611fd1565b60405180910390fd5b6104606001611827565b600061046c600161183d565b90506000600460008773ffffffffffffffffffffffffffffffffffffffff1673ffffffffffffffffffffffffffffffffffffffff1681526020019081526020016000209050848160010190816104c291906121fd565b50818160000181905550838160020190816104dd91906121fd565b5060008160030181905550858160040160006101000a81548173ffffffffffffffffffffffffffffffffffffffff021916908373ffffffffffffffffffffffffffffffffffffffff1602179055508281600501908161053c91906121fd565b506003869080600181540180825580915050600190039060005260206000200160009091909190916101000a81548173ffffffffffffffffffffffffffffffffffffffff021916908373ffffffffffffffffffffffffffffffffffffffff1602179055507f90f56c84b4b2e24220b751da6de9e56937478e7f932b8b730f066eb1e972bd6982868684600301548a886040516105dd96959493929190611c97565b60405180910390a1505050505050565b6000600580549050905090565b6060600060606000806060600460008873ffffffffffffffffffffffffffffffffffffffff1673ffffffffffffffffffffffffffffffffffffffff168152602001908152602001600020600101600460008973ffffffffffffffffffffffffffffffffffffffff1673ffffffffffffffffffffffffffffffffffffffff16815260200190815260200160002060000154600460008a73ffffffffffffffffffffffffffffffffffffffff1673ffffffffffffffffffffffffffffffffffffffff168152602001908152602001600020600201600460008b73ffffffffffffffffffffffffffffffffffffffff1673ffffffffffffffffffffffffffffffffffffffff16815260200190815260200160002060030154600460008c73ffffffffffffffffffffffffffffffffffffffff1673ffffffffffffffffffffffffffffffffffffffff16815260200190815260200160002060040160009054906101000a900473ffffffffffffffffffffffffffffffffffffffff16600460008d73ffffffffffffffffffffffffffffffffffffffff1673ffffffffffffffffffffffffffffffffffffffff1681526020019081526020016000206005018580546107c090612020565b80601f01602080910402602001604051908101604052809291908181526020018280546107ec90612020565b80156108395780601f1061080e57610100808354040283529160200191610839565b820191906000526020600020905b81548152906001019060200180831161081c57829003601f168201915b5050505050955083805461084c90612020565b80601f016020809104026020016040519081016040528092919081815260200182805461087890612020565b80156108c55780601f1061089a576101008083540402835291602001916108c5565b820191906000526020600020905b8154815290600101906020018083116108a857829003601f168201915b505050505093508080546108d890612020565b80601f016020809104026020016040519081016040528092919081815260200182805461090490612020565b80156109515780601f1061092657610100808354040283529160200191610951565b820191906000526020600020905b81548152906001019060200180831161093457829003601f168201915b5050505050905095509550955095509550955091939550919395565b6000600380549050905090565b6005818154811061098a57600080fd5b906000526020600020016000915054906101000a900473ffffffffffffffffffffffffffffffffffffffff1681565b600381815481106109c957600080fd5b906000526020600020016000915054906101000a900473ffffffffffffffffffffffffffffffffffffffff1681565b60068181548110610a0857600080fd5b906000526020600020016000915054906101000a900473ffffffffffffffffffffffffffffffffffffffff1681565b6004602052806000526040600020600091509050806000015490806001018054610a6090612020565b80601f0160208091040260200160405190810160405280929190818152602001828054610a8c90612020565b8015610ad95780601f10610aae57610100808354040283529160200191610ad9565b820191906000526020600020905b815481529060010190602001808311610abc57829003601f168201915b505050505090806002018054610aee90612020565b80601f0160208091040260200160405190810160405280929190818152602001828054610b1a90612020565b8015610b675780601f10610b3c57610100808354040283529160200191610b67565b820191906000526020600020905b815481529060010190602001808311610b4a57829003601f168201915b5050505050908060030154908060040160009054906101000a900473ffffffffffffffffffffffffffffffffffffffff1690806005018054610ba890612020565b80601f0160208091040260200160405190810160405280929190818152602001828054610bd490612020565b8015610c215780601f10610bf657610100808354040283529160200191610c21565b820191906000526020600020905b815481529060010190602001808311610c0457829003601f168201915b5050505050905086565b60606006805480602002602001604051908101604052809291908181526020018280548015610caf57602002820191906000526020600020905b8160009054906101000a900473ffffffffffffffffffffffffffffffffffffffff1673ffffffffffffffffffffffffffffffffffffffff1681526020019060010190808311610c65575b5050505050905090565b600060608060008060006060600760008973ffffffffffffffffffffffffffffffffffffffff1673ffffffffffffffffffffffffffffffffffffffff16815260200190815260200160002060000154600760008a73ffffffffffffffffffffffffffffffffffffffff1673ffffffffffffffffffffffffffffffffffffffff168152602001908152602001600020600101600760008b73ffffffffffffffffffffffffffffffffffffffff1673ffffffffffffffffffffffffffffffffffffffff168152602001908152602001600020600201600760008c73ffffffffffffffffffffffffffffffffffffffff1673ffffffffffffffffffffffffffffffffffffffff16815260200190815260200160002060030154600760008d73ffffffffffffffffffffffffffffffffffffffff1673ffffffffffffffffffffffffffffffffffffffff16815260200190815260200160002060040160009054906101000a900460ff16600760008e73ffffffffffffffffffffffffffffffffffffffff1673ffffffffffffffffffffffffffffffffffffffff16815260200190815260200160002060060160009054906101000a900473ffffffffffffffffffffffffffffffffffffffff16600760008f73ffffffffffffffffffffffffffffffffffffffff1673ffffffffffffffffffffffffffffffffffffffff168152602001908152602001600020600701858054610ed090612020565b80601f0160208091040260200160405190810160405280929190818152602001828054610efc90612020565b8015610f495780601f10610f1e57610100808354040283529160200191610f49565b820191906000526020600020905b815481529060010190602001808311610f2c57829003601f168201915b50505050509550848054610f5c90612020565b80601f0160208091040260200160405190810160405280929190818152602001828054610f8890612020565b8015610fd55780601f10610faa57610100808354040283529160200191610fd5565b820191906000526020600020905b815481529060010190602001808311610fb857829003601f168201915b50505050509450808054610fe890612020565b80601f016020809104026020016040519081016040528092919081815260200182805461101490612020565b80156110615780601f1061103657610100808354040283529160200191611061565b820191906000526020600020905b81548152906001019060200180831161104457829003601f168201915b505050505090509650965096509650965096509650919395979092949650565b60076020528060005260406000206000915090508060000154908060010180546110aa90612020565b80601f01602080910402602001604051908101604052809291908181526020018280546110d690612020565b80156111235780601f106110f857610100808354040283529160200191611123565b820191906000526020600020905b81548152906001019060200180831161110657829003601f168201915b50505050509080600201805461113890612020565b80601f016020809104026020016040519081016040528092919081815260200182805461116490612020565b80156111b15780601f10611186576101008083540402835291602001916111b1565b820191906000526020600020905b81548152906001019060200180831161119457829003601f168201915b5050505050908060030154908060040160009054906101000a900460ff16908060050154908060060160009054906101000a900473ffffffffffffffffffffffffffffffffffffffff169080600701805461120b90612020565b80601f016020809104026020016040519081016040528092919081815260200182805461123790612020565b80156112845780601f1061125957610100808354040283529160200191611284565b820191906000526020600020905b81548152906001019060200180831161126757829003601f168201915b5050505050905088565b60018060000154905081565b6060600580548060200260200160405190810160405280929190818152602001828054801561131e57602002820191906000526020600020905b8160009054906101000a900473ffffffffffffffffffffffffffffffffffffffff1673ffffffffffffffffffffffffffffffffffffffff16815260200190600101908083116112d4575b5050505050905090565b60008060000154905081565b3373ffffffffffffffffffffffffffffffffffffffff16600260009054906101000a900473ffffffffffffffffffffffffffffffffffffffff1673ffffffffffffffffffffffffffffffffffffffff16146113c4576040517f08c379a00000000000000000000000000000000000000000000000000000000081526004016113bb9061231b565b60405180910390fd5b6113ce6000611827565b60006113da600061183d565b90506000600760008773ffffffffffffffffffffffffffffffffffffffff1673ffffffffffffffffffffffffffffffffffffffff1681526020019081526020016000209050600081600301541461143057600080fd5b8181600001819055508481600101908161144a91906121fd565b508381600201908161145c91906121fd565b506001816003018190555060008160040160006101000a81548160ff02191690831515021790555060008160050181905550858160060160006101000a81548173ffffffffffffffffffffffffffffffffffffffff021916908373ffffffffffffffffffffffffffffffffffffffff160217905550828160070190816114e291906121fd565b506005869080600181540180825580915050600190039060005260206000200160009091909190916101000a81548173ffffffffffffffffffffffffffffffffffffffff021916908373ffffffffffffffffffffffffffffffffffffffff1602179055507f55d0b95170c7e3fa38a47bff58ecb8cc8f14da6177a3a9035c74ac72198d317d82868684600301548560040160009054906101000a900460ff1686600501548c8a60405161159c989796959493929190611e8c565b60405180910390a1505050505050565b600260009054906101000a900473ffffffffffffffffffffffffffffffffffffffff1681565b6060600380548060200260200160405190810160405280929190818152602001828054801561165657602002820191906000526020600020905b8160009054906101000a900473ffffffffffffffffffffffffffffffffffffffff1673ffffffffffffffffffffffffffffffffffffffff168152602001906001019080831161160c575b5050505050905090565b6000600760003373ffffffffffffffffffffffffffffffffffffffff1673ffffffffffffffffffffffffffffffffffffffff16815260200190815260200160002090508060040160009054906101000a900460ff16156116f5576040517f08c379a00000000000000000000000000000000000000000000000000000000081526004016116ec90612387565b60405180910390fd5b600081600301540361173c576040517f08c379a000000000000000000000000000000000000000000000000000000000815260040161173390612419565b60405180910390fd5b60018160040160006101000a81548160ff0219169083151502179055508181600501819055506006339080600181540180825580915050600190039060005260206000200160009091909190916101000a81548173ffffffffffffffffffffffffffffffffffffffff021916908373ffffffffffffffffffffffffffffffffffffffff1602179055508060030154600460008573ffffffffffffffffffffffffffffffffffffffff1673ffffffffffffffffffffffffffffffffffffffff168152602001908152602001600020600301600082825461181b9190612468565b92505081905550505050565b6001816000016000828254019250508190555050565b600081600001549050919050565b6000604051905090565b600080fd5b600080fd5b600073ffffffffffffffffffffffffffffffffffffffff82169050919050565b600061188a8261185f565b9050919050565b61189a8161187f565b81146118a557600080fd5b50565b6000813590506118b781611891565b92915050565b600080fd5b600080fd5b6000601f19601f8301169050919050565b7f4e487b7100000000000000000000000000000000000000000000000000000000600052604160045260246000fd5b611910826118c7565b810181811067ffffffffffffffff8211171561192f5761192e6118d8565b5b80604052505050565b600061194261184b565b905061194e8282611907565b919050565b600067ffffffffffffffff82111561196e5761196d6118d8565b5b611977826118c7565b9050602081019050919050565b82818337600083830152505050565b60006119a66119a184611953565b611938565b9050828152602081018484840111156119c2576119c16118c2565b5b6119cd848285611984565b509392505050565b600082601f8301126119ea576119e96118bd565b5b81356119fa848260208601611993565b91505092915050565b60008060008060808587031215611a1d57611a1c611855565b5b6000611a2b878288016118a8565b945050602085013567ffffffffffffffff811115611a4c57611a4b61185a565b5b611a58878288016119d5565b935050604085013567ffffffffffffffff811115611a7957611a7861185a565b5b611a85878288016119d5565b925050606085013567ffffffffffffffff811115611aa657611aa561185a565b5b611ab2878288016119d5565b91505092959194509250565b6000819050919050565b611ad181611abe565b82525050565b6000602082019050611aec6000830184611ac8565b92915050565b600060208284031215611b0857611b07611855565b5b6000611b16848285016118a8565b91505092915050565b600081519050919050565b600082825260208201905092915050565b60005b83811015611b59578082015181840152602081019050611b3e565b60008484015250505050565b6000611b7082611b1f565b611b7a8185611b2a565b9350611b8a818560208601611b3b565b611b93816118c7565b840191505092915050565b611ba78161187f565b82525050565b600060c0820190508181036000830152611bc78189611b65565b9050611bd66020830188611ac8565b8181036040830152611be88187611b65565b9050611bf76060830186611ac8565b611c046080830185611b9e565b81810360a0830152611c168184611b65565b9050979650505050505050565b611c2c81611abe565b8114611c3757600080fd5b50565b600081359050611c4981611c23565b92915050565b600060208284031215611c6557611c64611855565b5b6000611c7384828501611c3a565b91505092915050565b6000602082019050611c916000830184611b9e565b92915050565b600060c082019050611cac6000830189611ac8565b8181036020830152611cbe8188611b65565b90508181036040830152611cd28187611b65565b9050611ce16060830186611ac8565b611cee6080830185611b9e565b81810360a0830152611d008184611b65565b9050979650505050505050565b600081519050919050565b600082825260208201905092915050565b6000819050602082019050919050565b611d428161187f565b82525050565b6000611d548383611d39565b60208301905092915050565b6000602082019050919050565b6000611d7882611d0d565b611d828185611d18565b9350611d8d83611d29565b8060005b83811015611dbe578151611da58882611d48565b9750611db083611d60565b925050600181019050611d91565b5085935050505092915050565b60006020820190508181036000830152611de58184611d6d565b905092915050565b60008115159050919050565b611e0281611ded565b82525050565b600060e082019050611e1d600083018a611ac8565b8181036020830152611e2f8189611b65565b90508181036040830152611e438188611b65565b9050611e526060830187611ac8565b611e5f6080830186611df9565b611e6c60a0830185611b9e565b81810360c0830152611e7e8184611b65565b905098975050505050505050565b600061010082019050611ea2600083018b611ac8565b8181036020830152611eb4818a611b65565b90508181036040830152611ec88189611b65565b9050611ed76060830188611ac8565b611ee46080830187611df9565b611ef160a0830186611ac8565b611efe60c0830185611b9e565b81810360e0830152611f108184611b65565b90509998505050505050505050565b60008060408385031215611f3657611f35611855565b5b6000611f44858286016118a8565b9250506020611f5585828601611c3a565b9150509250929050565b7f4f6e6c79206f7267616e697365722063616e206372656174652063616e64696460008201527f6174650000000000000000000000000000000000000000000000000000000000602082015250565b6000611fbb602383611b2a565b9150611fc682611f5f565b604082019050919050565b60006020820190508181036000830152611fea81611fae565b9050919050565b7f4e487b7100000000000000000000000000000000000000000000000000000000600052602260045260246000fd5b6000600282049050600182168061203857607f821691505b60208210810361204b5761204a611ff1565b5b50919050565b60008190508160005260206000209050919050565b60006020601f8301049050919050565b600082821b905092915050565b6000600883026120b37fffffffffffffffffffffffffffffffffffffffffffffffffffffffffffffffff82612076565b6120bd8683612076565b95508019841693508086168417925050509392505050565b6000819050919050565b60006120fa6120f56120f084611abe565b6120d5565b611abe565b9050919050565b6000819050919050565b612114836120df565b61212861212082612101565b848454612083565b825550505050565b600090565b61213d612130565b61214881848461210b565b505050565b5b8181101561216c57612161600082612135565b60018101905061214e565b5050565b601f8211156121b15761218281612051565b61218b84612066565b8101602085101561219a578190505b6121ae6121a685612066565b83018261214d565b50505b505050565b600082821c905092915050565b60006121d4600019846008026121b6565b1980831691505092915050565b60006121ed83836121c3565b9150826002028217905092915050565b61220682611b1f565b67ffffffffffffffff81111561221f5761221e6118d8565b5b6122298254612020565b612234828285612170565b600060209050601f8311600181146122675760008415612255578287015190505b61225f85826121e1565b8655506122c7565b601f19841661227586612051565b60005b8281101561229d57848901518255600182019150602085019450602081019050612278565b868310156122ba57848901516122b6601f8916826121c3565b8355505b6001600288020188555050505b505050505050565b7f4f6e6c79206f7267616e697365722063616e2063726561746520766f74657200600082015250565b6000612305601f83611b2a565b9150612310826122cf565b602082019050919050565b60006020820190508181036000830152612334816122f8565b9050919050565b7f596f75206861766520616c726561647920766f74656400000000000000000000600082015250565b6000612371601683611b2a565b915061237c8261233b565b602082019050919050565b600060208201905081810360008301526123a081612364565b9050919050565b7f596f752068617665206e6f20726967687420746f20766f74654465636973696f60008201527f6e00000000000000000000000000000000000000000000000000000000000000602082015250565b6000612403602183611b2a565b915061240e826123a7565b604082019050919050565b60006020820190508181036000830152612432816123f6565b9050919050565b7f4e487b7100000000000000000000000000000000000000000000000000000000600052601160045260246000fd5b600061247382611abe565b915061247e83611abe565b925082820190508082111561249657612495612439565b5b9291505056fea264697066735822122033f82bb1759889cca2bcc53ec93354153decd1ec326713c14c56bd9364938b8e64736f6c63430008120033",
  "linkReferences": {},
  "deployedLinkReferences": {}
}